{
    "contractName": "Campaign",
    "abi": [
        {
            "inputs": [
                {
                    "internalType": "uint256",
                    "name": "duration",
                    "type": "uint256"
                },
                {
                    "internalType": "address payable",
                    "name": "receipient_adress",
                    "type": "address"
                }
            ],
            "payable": false,
            "stateMutability": "nonpayable",
            "type": "constructor"
        },
        {
            "anonymous": false,
            "inputs": [
                {
                    "indexed": false,
                    "internalType": "address",
                    "name": "receipient",
                    "type": "address"
                },
                {
                    "indexed": false,
                    "internalType": "uint256",
                    "name": "amount",
                    "type": "uint256"
                }
            ],
            "name": "DonationEnded",
            "type": "event"
        },
        {
            "anonymous": false,
            "inputs": [
                {
                    "indexed": false,
                    "internalType": "address",
                    "name": "donor",
                    "type": "address"
                },
                {
                    "indexed": false,
                    "internalType": "uint256",
                    "name": "amount",
                    "type": "uint256"
                }
            ],
            "name": "DonationSend",
            "type": "event"
        },
        {
            "constant": true,
            "inputs": [],
            "name": "expiration_date",
            "outputs": [
                {
                    "internalType": "uint256",
                    "name": "",
                    "type": "uint256"
                }
            ],
            "payable": false,
            "stateMutability": "view",
            "type": "function"
        },
        {
            "constant": true,
            "inputs": [],
            "name": "receipient",
            "outputs": [
                {
                    "internalType": "address payable",
                    "name": "",
                    "type": "address"
                }
            ],
            "payable": false,
            "stateMutability": "view",
            "type": "function"
        },
        {
            "constant": false,
            "inputs": [],
            "name": "donate",
            "outputs": [],
            "payable": true,
            "stateMutability": "payable",
            "type": "function"
        },
        {
            "constant": false,
            "inputs": [],
            "name": "payout",
            "outputs": [],
            "payable": false,
            "stateMutability": "nonpayable",
            "type": "function"
        }
    ],
    "bytecode": "0x608060405234801561001057600080fd5b506040516104543803806104548339818101604052604081101561003357600080fd5b810190808051906020019092919080519060200190929190505050806000806101000a81548173ffffffffffffffffffffffffffffffffffffffff021916908373ffffffffffffffffffffffffffffffffffffffff16021790555081420160018190555050506103ac806100a86000396000f3fe60806040526004361061003f5760003560e01c806363bd1d4a14610044578063787060791461005b578063ed88c68e14610086578063ff5d80f214610090575b600080fd5b34801561005057600080fd5b506100596100e7565b005b34801561006757600080fd5b50610070610238565b6040518082815260200191505060405180910390f35b61008e61023e565b005b34801561009c57600080fd5b506100a5610306565b604051808273ffffffffffffffffffffffffffffffffffffffff1673ffffffffffffffffffffffffffffffffffffffff16815260200191505060405180910390f35b600154421015610142576040517f08c379a00000000000000000000000000000000000000000000000000000000081526004018080602001828103825260238152602001806103556023913960400191505060405180910390fd5b7fa4e903e83fb7074a66ed2963f02e6f4036b7c46efa79e1b3f21fe66c4f5647056000809054906101000a900473ffffffffffffffffffffffffffffffffffffffff1647604051808373ffffffffffffffffffffffffffffffffffffffff1673ffffffffffffffffffffffffffffffffffffffff1681526020018281526020019250505060405180910390a16000809054906101000a900473ffffffffffffffffffffffffffffffffffffffff1673ffffffffffffffffffffffffffffffffffffffff166108fc479081150290604051600060405180830381858888f19350505050158015610235573d6000803e3d6000fd5b50565b60015481565b426001541015610299576040517f08c379a000000000000000000000000000000000000000000000000000000000815260040180806020018281038252602981526020018061032c6029913960400191505060405180910390fd5b7fa73eb25df2fb7568268455fae39128a778efc6666574c7e4f197dc389cf2285e3334604051808373ffffffffffffffffffffffffffffffffffffffff1673ffffffffffffffffffffffffffffffffffffffff1681526020018281526020019250505060405180910390a1565b6000809054906101000a900473ffffffffffffffffffffffffffffffffffffffff168156fe5468697320446f6e6174696f6e2043616d706169676e2068617320616c726561647920656e6465642e446f6e6174696f6e2043616d706169676e20686173206e6f7420456e64656420596574a265627a7a723158209297fc491d7e04beb0409b7fc650fab484d74b7cb47e7da4ea78a106991eed7d64736f6c63430005100032",
    "source": "// SPDX-License-Identifier: GPL-3.0\r\n\r\npragma solidity >=0.4.22 <0.8.0;\r\n\r\ncontract Campaign {\r\n    address payable public receipient;\r\n    uint256 public expiration_date;\r\n    // uint public goal;\r\n\r\n    // error AuctionAlreadyEnded();\r\n\r\n    event DonationSend(address donor, uint256 amount);\r\n    event DonationEnded(address receipient, uint256 amount);\r\n\r\n    constructor(uint256 duration, address payable receipient_adress) public {\r\n        receipient = receipient_adress;\r\n        // goal = goal;\r\n        expiration_date = block.timestamp + duration;\r\n    }\r\n\r\n    function donate() public payable {\r\n        if (expiration_date < block.timestamp)\r\n            revert(\"This Donation Campaign has already ended.\");\r\n        emit DonationSend(msg.sender, msg.value);\r\n    }  \r\n\r\n    function payout() external {\r\n        if (block.timestamp < expiration_date)\r\n            revert(\"Donation Campaign has not Ended Yet\");\r\n        emit DonationEnded(receipient, address(this).balance);\r\n        receipient.transfer(address(this).balance);\r\n    }\r\n}\r\n",
    "sourcePath": "C:\\Users\\Max.Meuer\\Documents\\Collatis\\contracts\\Campaign.sol",
    "compiler": {
        "name": "solc",
        "version": "0.5.16+commit.9c3226ce.Emscripten.clang"
    },
    "schemaVersion": "3.4.3",
    "updatedAt": "2021-11-14T13:20:49.043Z",
    "networkType": "ethereum",
    "devdoc": {
        "methods": {}
    },
    "userdoc": {
        "methods": {}
    }
}