{
  "contractName": "Campaign",
  "abi": [
    {
      "inputs": [
        {
          "internalType": "uint256",
          "name": "duration",
          "type": "uint256"
        },
        {
          "internalType": "address payable",
          "name": "receipient_adress",
          "type": "address"
        },
        {
          "internalType": "uint256",
          "name": "goal",
          "type": "uint256"
        }
      ],
      "payable": false,
      "stateMutability": "nonpayable",
      "type": "constructor"
    },
    {
      "anonymous": false,
      "inputs": [
        {
          "indexed": false,
          "internalType": "address",
          "name": "receipient",
          "type": "address"
        },
        {
          "indexed": false,
          "internalType": "uint256",
          "name": "amount",
          "type": "uint256"
        }
      ],
      "name": "DonationEnded",
      "type": "event"
    },
    {
      "anonymous": false,
      "inputs": [
        {
          "indexed": false,
          "internalType": "address",
          "name": "donor",
          "type": "address"
        },
        {
          "indexed": false,
          "internalType": "uint256",
          "name": "amount",
          "type": "uint256"
        }
      ],
      "name": "DonationSend",
      "type": "event"
    },
    {
      "constant": true,
      "inputs": [],
      "name": "expiration_date",
      "outputs": [
        {
          "internalType": "uint256",
          "name": "",
          "type": "uint256"
        }
      ],
      "payable": false,
      "stateMutability": "view",
      "type": "function"
    },
    {
      "constant": true,
      "inputs": [],
      "name": "goal",
      "outputs": [
        {
          "internalType": "uint256",
          "name": "",
          "type": "uint256"
        }
      ],
      "payable": false,
      "stateMutability": "view",
      "type": "function"
    },
    {
      "constant": true,
      "inputs": [],
      "name": "receipient",
      "outputs": [
        {
          "internalType": "address payable",
          "name": "",
          "type": "address"
        }
      ],
      "payable": false,
      "stateMutability": "view",
      "type": "function"
    },
    {
      "constant": false,
      "inputs": [],
      "name": "donate",
      "outputs": [],
      "payable": true,
      "stateMutability": "payable",
      "type": "function"
    },
    {
      "constant": true,
      "inputs": [],
      "name": "getLatestPrice",
      "outputs": [
        {
          "internalType": "int256",
          "name": "",
          "type": "int256"
        }
      ],
      "payable": false,
      "stateMutability": "view",
      "type": "function"
    },
    {
      "constant": true,
      "inputs": [],
      "name": "getBalance",
      "outputs": [
        {
          "internalType": "uint256",
          "name": "",
          "type": "uint256"
        }
      ],
      "payable": false,
      "stateMutability": "view",
      "type": "function"
    },
    {
      "constant": false,
      "inputs": [],
      "name": "payout",
      "outputs": [],
      "payable": false,
      "stateMutability": "nonpayable",
      "type": "function"
    }
  ],
  "bytecode": "0x608060405234801561001057600080fd5b506040516107d93803806107d98339818101604052606081101561003357600080fd5b81019080805190602001909291908051906020019092919080519060200190929190505050816000806101000a81548173ffffffffffffffffffffffffffffffffffffffff021916908373ffffffffffffffffffffffffffffffffffffffff160217905550809050739326bfa02add2366b30bacb125260af641031331600260006101000a81548173ffffffffffffffffffffffffffffffffffffffff021916908373ffffffffffffffffffffffffffffffffffffffff1602179055508242016001819055505050506106ce8061010b6000396000f3fe6080604052600436106100705760003560e01c8063787060791161004e57806378706079146100e25780638e15f4731461010d578063ed88c68e14610138578063ff5d80f21461014257610070565b806312065fe01461007557806340193883146100a057806363bd1d4a146100cb575b600080fd5b34801561008157600080fd5b5061008a610199565b6040518082815260200191505060405180910390f35b3480156100ac57600080fd5b506100b561028a565b6040518082815260200191505060405180910390f35b3480156100d757600080fd5b506100e0610290565b005b3480156100ee57600080fd5b506100f7610443565b6040518082815260200191505060405180910390f35b34801561011957600080fd5b50610122610449565b6040518082815260200191505060405180910390f35b610140610532565b005b34801561014e57600080fd5b506101576105fa565b604051808273ffffffffffffffffffffffffffffffffffffffff1673ffffffffffffffffffffffffffffffffffffffff16815260200191505060405180910390f35b600080600080600080600260009054906101000a900473ffffffffffffffffffffffffffffffffffffffff1673ffffffffffffffffffffffffffffffffffffffff1663feaf968c6040518163ffffffff1660e01b815260040160a06040518083038186803b15801561020a57600080fd5b505afa15801561021e573d6000803e3d6000fd5b505050506040513d60a081101561023457600080fd5b810190808051906020019092919080519060200190929190805190602001909291908051906020019092919080519060200190929190505050945094509450945094506000478502905080965050505050505090565b60035481565b60035461029b610199565b10156102f2576040517f08c379a000000000000000000000000000000000000000000000000000000000815260040180806020018281038252602e815260200180610649602e913960400191505060405180910390fd5b60015442101561034d576040517f08c379a00000000000000000000000000000000000000000000000000000000081526004018080602001828103825260238152602001806106776023913960400191505060405180910390fd5b7fa4e903e83fb7074a66ed2963f02e6f4036b7c46efa79e1b3f21fe66c4f5647056000809054906101000a900473ffffffffffffffffffffffffffffffffffffffff1647604051808373ffffffffffffffffffffffffffffffffffffffff1673ffffffffffffffffffffffffffffffffffffffff1681526020018281526020019250505060405180910390a16000809054906101000a900473ffffffffffffffffffffffffffffffffffffffff1673ffffffffffffffffffffffffffffffffffffffff166108fc479081150290604051600060405180830381858888f19350505050158015610440573d6000803e3d6000fd5b50565b60015481565b600080600080600080600260009054906101000a900473ffffffffffffffffffffffffffffffffffffffff1673ffffffffffffffffffffffffffffffffffffffff1663feaf968c6040518163ffffffff1660e01b815260040160a06040518083038186803b1580156104ba57600080fd5b505afa1580156104ce573d6000803e3d6000fd5b505050506040513d60a08110156104e457600080fd5b81019080805190602001909291908051906020019092919080519060200190929190805190602001909291908051906020019092919050505094509450945094509450839550505050505090565b42600154101561058d576040517f08c379a00000000000000000000000000000000000000000000000000000000081526004018080602001828103825260298152602001806106206029913960400191505060405180910390fd5b7fa73eb25df2fb7568268455fae39128a778efc6666574c7e4f197dc389cf2285e3334604051808373ffffffffffffffffffffffffffffffffffffffff1673ffffffffffffffffffffffffffffffffffffffff1681526020018281526020019250505060405180910390a1565b6000809054906101000a900473ffffffffffffffffffffffffffffffffffffffff168156fe5468697320446f6e6174696f6e2043616d706169676e2068617320616c726561647920656e6465642e446f6e6174696f6e2043616d706169676e20686173206e6f7420726561636865642069747320656e6420676f616c446f6e6174696f6e2043616d706169676e20686173206e6f7420456e64656420596574a265627a7a723158200df0e1d99eb9d1964f16bbd6e7b203fec587a362a4f5c27457fdd5dbed192b8e64736f6c63430005100032",
  "source": "// SPDX-License-Identifier: GPL-3.0\npragma solidity >=0.4.22 <0.8.0;\nimport \"@chainlink/contracts/src/v0.5/interfaces/AggregatorV3Interface.sol\";\n\ncontract Campaign {\n    address payable public receipient;\n    uint256 public expiration_date;\n    AggregatorV3Interface internal priceFeed;\n\n    uint256 public goal;\n\n    // error AuctionAlreadyEnded();\n\n    event DonationSend(address donor, uint256 amount);\n    event DonationEnded(address receipient, uint256 amount);\n\n    constructor(\n        uint256 duration,\n        address payable receipient_adress,\n        uint256 goal\n    ) public {\n        receipient = receipient_adress;\n        goal = goal;\n        priceFeed = AggregatorV3Interface(\n            0x9326BFA02ADD2366b30bacB125260Af641031331\n        );\n        expiration_date = block.timestamp + duration;\n    }\n\n    function donate() public payable {\n        if (expiration_date < block.timestamp)\n            revert(\"This Donation Campaign has already ended.\");\n        emit DonationSend(msg.sender, msg.value);\n    }\n\n    function getLatestPrice() public view returns (int256) {\n        (\n            uint80 roundID,\n            int256 price,\n            uint256 startedAt,\n            uint256 timeStamp,\n            uint80 answeredInRound\n        ) = priceFeed.latestRoundData();\n        return price;\n    }\n\n    function getBalance() public view returns (uint256) {\n        (\n            uint80 roundID,\n            int256 price,\n            uint256 startedAt,\n            uint256 timeStamp,\n            uint80 answeredInRound\n        ) = priceFeed.latestRoundData();\n\n        uint256 balance;\n        balance = uint256(price) * address(this).balance;\n        return balance;\n    }\n\n    function payout() public {\n        if (getBalance() < goal)\n            revert(\"Donation Campaign has not reached its end goal\");\n        if (block.timestamp < expiration_date)\n            revert(\"Donation Campaign has not Ended Yet\");\n        emit DonationEnded(receipient, address(this).balance);\n        receipient.transfer(address(this).balance);\n    }\n}\n",
  "sourcePath": "/Users/maxmeuer/Documents/code/chainlink/Collatis_Eth/Eth/contracts/Campaign.sol",
  "compiler": {
    "name": "solc",
    "version": "0.5.16+commit.9c3226ce.Emscripten.clang"
  },
  "schemaVersion": "3.4.3",
  "updatedAt": "2021-11-23T22:35:49.309Z",
  "devdoc": {
    "methods": {}
  },
  "userdoc": {
    "methods": {}
  }
}